:020000040800F2
:10000000800D0020210100085D0C0008550C00083F
:10001000590C00080D070008FB160008000000003E
:10002000000000000000000000000000430E000877
:10003000B108000800000000E50C00082D0F0008C2
:100040003B0100083B0100083B0100083B010008A0
:100050003B0100083B0100083B0100083B01000890
:100060003B0100083B0100083B0100083B01000880
:100070003B0100083B0100083B0100083B01000870
:100080003B0100083B0100083B0100083B01000860
:100090003B0100083B0100083B0100083B01000850
:1000A0003B0100083B0100083B0100083B01000840
:1000B0003B010008910F00083B0100083B010008CC
:1000C0003B0100083B0100083B0100083B01000820
:1000D0003B0100083B010008B51200083B01000885
:1000E0003B0100083B0100083B010008DFF80CD091
:1000F00000F06CFA00480047B1350008800D002080
:10010000EFF30980704780F309887047EFF30880A8
:10011000704780F30888704740BA7047C0BA70478C
:100120000648804706480047FEE7FEE7FEE7FEE791
:10013000FEE7FEE7FEE7FEE7FEE7FEE7310F000819
:10014000ED00000840EA01039B0703D009E008C95D
:10015000121F08C0042AFAD203E011F8013B00F88C
:10016000013B521EF9D27047D2B201E000F8012BD8
:10017000491EFBD270470022F6E710B513460A4627
:1001800004461946FFF7F0FF204610BD10B504469F
:1001900004E00B7800F8013B03B1491C521EF8D271
:1001A000204610BD421C10F8011B0029FBD1801A0B
:1001B000704730B504460020034600E05B1C9342C4
:1001C00003D2E05CCD5C401BF8D030BD30B50B46AF
:1001D000014600202022012409E021FA02F59D4277
:1001E00005D303FA02F5491B04FA02F52844151E4B
:1001F000A2F10102F1DC30BD2DE9F05F05460020DF
:1002000092469B4688460646814640241BE0284687
:1002100041464746224600F0FAF953465A46C01A6C
:10022000914110D311461846224600F0E1F92D1AEB
:1002300067EB01084F4622460120002100F0D8F963
:1002400017EB00094E41201EA4F10104DFDC4846F3
:1002500031462A464346BDE8F09F2DE9FE4F8046D1
:1002600081EA0300C00F0C46009021F0004123F00A
:100270000045B8EB0200A94105D240462146904610
:100280001C460B46024623F00040104347D0270D82
:10029000C7F30A00C3F30A510290401A01904028A4
:1002A0006BDAC3F3130040F4801B0098924620B130
:1002B0000023D2EB030A63EB0B0B01985946C0F104
:1002C0004002504600F094F906460D465046594605
:1002D000019A00F0ACF910EB08006141002487EAB4
:1002E000115284EAE7731A4340D0009A62B3019A2C
:1002F000012A4FEA075215DC001B61EB02014FF0A7
:10030000004202EA0752CDE90042001C41F580118B
:1003100032462B4600F0ACF903B0BDE8F08F404602
:100320002146F9E7001B61EB0201001C41F5801337
:1003300000185B412018A2F5001747EB030140EAC3
:10034000D570B6196D4111E06D084FEA360645EAE1
:10035000C0754FEA0752001B61EB0201001C41F51A
:10036000801149084FEA30000019514132462B46AE
:1003700003B0BDE8F04F00F06CB9009801224000D6
:100380000023D0EB020263EBE073009821464FEAB2
:10039000E074B8EB000061EB0401E9E783F000438F
:1003A0005BE781F0004158E72DE9FE4F81EA030445
:1003B00004F0004421F0004100944FF0000B23F0C2
:1003C000004350EA01045ED052EA03045BD0C3F359
:1003D0000A54C1F30A552C44A4F2F3340194A0FB4F
:1003E0000254C1F3130141F48011C3F3130343F426
:1003F000801301FB024400FB034E840A970A44EA7F
:10040000815447EA8357A4FB076802958D0A05FBD0
:1004100007854FEA932C04FB0C542705029D4FEAF5
:10042000065847EA1637B5EB08056EEB070C870E42
:10043000920E47EA811742EA8312A7FB0201B6EB4C
:100440000B0164EB00042B0D43EA0C335E1844EB04
:100450001C50DA465146E7FB0201C5F313044FEA8C
:100460000B3343EA14534FEA0432019C43EA060378
:10047000A4F10C040294009CCDE900B400F0F8F85B
:1004800003B0BDE8F08F00200146F9E72DE9F04DFB
:1004900081EA030404F0004B21F0004514464FF0BC
:1004A000000A23F0004150EA050220D054EA01027C
:1004B0001DD0C5F30A570246C5F31303C1F3130059
:1004C000C1F30A5640F4801543F48013A7EB0608E5
:1004D000101BD64608F2FD3873EB050002D308F175
:1004E000010801E092185B41B8F1000F03DA002027
:1004F0000146BDE8F08D00204FF480110646844689
:100500000EE0171B73EB050705D3121B63EB050306
:1005100006434CEA010C49084FEA300092185B414F
:1005200050EA0107EDD152EA030012D082EA04003A
:1005300083EA0501084305D0101BAB4106D2012216
:10054000002306E000224FF0004302E06FF00102BA
:1005500053101AEB06004CEB085110EB0A0041EB6C
:100560000B01BDE8F04D00F074B8C1F30A52C1F3BD
:10057000130140F2FF3341F480119A4202DA002065
:100580000146704740F233439A42A2F2334202DC02
:10059000524200F03CB800F02BB8000030B5041E09
:1005A00071F1000404DB4FF00044404264EB0101B0
:1005B000141E73F1000405DB1C464FF00043524249
:1005C00063EB0403994208BF904230BD064C074DCF
:1005D00006E0E06840F0010394E807009847103413
:1005E000AC42F6D3FFF786FD5C3700087C37000885
:1005F000202A04DB203A00FA02F1002070479140E3
:10060000C2F1200320FA03F3194390407047202AD7
:1006100004DB203A21FA02F00021704721FA02F3AC
:10062000D040C2F120029140084319467047202A69
:1006300006DBCB17203A41FA02F043EAE07306E00A
:1006400041FA02F3D040C2F120029140084319461A
:10065000704710B5141E73F1000408DA401C41F114
:10066000000192185B411A4301D120F0010010BD36
:100670002DE9F04D92469B4611B1B1FA81F202E0AC
:10068000B0FA80F220329046FFF7B2FF04460F46E0
:1006900040EA0A0041EA0B0153465A46084313D088
:1006A000114653EA010019D0C8F140025046FFF745
:1006B000AEFF05460E46504659464246FFF798FFA4
:1006C000084305D0012004E020463946BDE8F08DFE
:1006D0000020054346EAE0762C4337430A98630539
:1006E000E40AA0EB08000022FD0A44EA47540A305D
:1006F00002D500200146E9E7010510196941DDE94D
:10070000084500196941BDE8F04DA2E700BFFEE7CA
:1007100010B500241548006820F0F0001349086067
:100720000846006840F08000086004E0601CC4B225
:10073000012001F03FFE0E48006808B1C82CF5DB2F
:10074000C82C01DB012010BD002404E0601CC4B2F1
:10075000012001F02FFE0648006808B9F02CF5DBF7
:10076000F02C01DB0120EEE70020ECE7000801405F
:100770000401214210B51448006820F0F00012492D
:1007800008600846006840F07000086000200F49CB
:100790000860012001F00EFE01200D49C1F884011E
:1007A0000948006820F0F000074908600846006822
:1007B00040F08000086005488038006808B10124D6
:1007C00000E00024204610BD0008014084012142C1
:1007D0000000214270B5002501240BE0FFF7CAFF9D
:1007E0000646F00140EA6500C5B2052001F0E2FDD1
:1007F000601CC4B2082CF1DD284670BD10B50C4851
:10080000006820F0F0000A4908600846006840F0DF
:1008100070000860002007490860412001F0CAFD0F
:1008200001200549C1F8840101F0C4FD10BD00009C
:1008300000080140840121420000214270B50446B5
:100840001848006820F0F000164908600846006863
:1008500040F070000860012520E004F001066410FB
:100860006EB1002010490860012001F0A3FD0120B5
:100870000E49C1F884010B2001F09CFD0CE0002022
:1008800009490860082001F095FD01200749C1F8D9
:100890008401032001F08EFD681CC5B2082DDCDD4B
:1008A00070BD000000080140840121420000214287
:1008B000704700000149C8607047000000200240F6
:1008C00030B5044604254FF4302000F08DF805467D
:1008D000042D17D10C48006940F002000A49086154
:1008E00008464461006940F0400008614FF4302040
:1008F00000F07AF805460448006941F6FD710840A9
:1009000001490861284630BD0020024004200B49FF
:10091000C96801F0010109B101200EE00749C96869
:1009200001F0040109B1022007E00449C96801F09F
:10093000100109B1032000E00420704700200240AC
:100940000348006940F080000149086170470000D9
:100950000020024070B504460D460426F00200F067
:1009600043F80646042E11D10948006940F0010001
:10097000074908612580F00200F036F80646044871
:10098000006941F6FE71084001490861304670BDBA
:100990000020024030B503460C461546002207E011
:1009A000184600F04BFA24F812009B1C501C82B22F
:1009B000AA42F5DB30BD000001460020034A106862
:1009C00000F038000843106070470000002002402B
:1009D000024803494860034848607047230167455F
:1009E00000200240AB89EFCD00B502460423FFF79B
:1009F0008DFF034603E0FFF789FF0346521E012BDC
:100A000001D1002AF7D102B90523184600BD000024
:100A10002DE9F047044688461646B4F1006F03D32B
:100A2000A0191A49884202D3F020BDE8F087FFF7E9
:100A3000CFFFA4F100694FEA99274FF0006000EB67
:100A4000872A5046FFF73CFF114908703520FFF711
:100A500031FF0F480078042802D00EA002F0B8FD44
:100A600000250CE038F815102046FFF773FF084901
:100A70000870012001F08FFCA41C681C85B2B542EF
:100A8000F0DBFFF75DFF02480078CEE700000108C9
:100A90002C000020466C61736820457261736520EC
:100AA000706167650D0A00002DE9F04102460025DE
:100AB0000026002000230024002791F803C00CF03A
:100AC0000F0591F803C00CF0100CBCF1000F03D01F
:100AD00091F802C04CEA050591F800C0BCF1000F86
:100AE00031D0146800202BE04FF0010C0CFA00F319
:100AF000B1F800C00CEA03069E4220D183004FF0FB
:100B00000F0C0CFA03F7BC4305FA03FC4CEA04048F
:100B100091F803C0BCF1280F06D14FF0010C0CFA7C
:100B200000FCC2F814C00AE091F803C0BCF1480F01
:100B300005D14FF0010C0CFA00FCC2F810C0401CAB
:100B40000828D1D31460B1F800C0BCF1FF0F34DD28
:100B5000546800202EE000F1080C4FF0010808FA5C
:100B60000CF3B1F800C00CEA03069E4221D18300C9
:100B70004FF00F0C0CFA03F7BC4305FA03FC4CEAE8
:100B8000040491F803C0BCF1280F05D100F1080C52
:100B900008FA0CF8C2F8148091F803C0BCF1480FB1
:100BA00007D100F1080C4FF0010808FA0CF8C2F860
:100BB0001080401C0828CED35460BDE8F0810000AE
:100BC000F0B50A46002300240021002500F000466D
:100BD000B6F1004F02D11D4EF16901E01B4E716864
:100BE000C0F3034583B200F44016B6F5401F08D1A8
:100BF00021F07061154E766826F07066134F7E60A6
:100C000012E000F48016B6F5801F06D1032606FA1E
:100C100005F4A14341F0706106E0460D360103FA88
:100C200006F6B14341F0706122B1460D360103FA78
:100C300006F6314300F00046B6F1004F02D1034EF4
:100C4000F16101E0014E7160F0BD00000000014063
:100C50000161704700BFFEE700BFFEE7704700007C
:100C600070B5002100230F22C47804B3154C24680A
:100C700004F4E064C4F5E064210AC1F10403CA404D
:100C8000447804FA03F184781440214309010E4C9E
:100C90000678A155047804F01F050124AC400578BE
:100CA0006D11AD0005F1E025C5F8004109E00478BB
:100CB00004F01F050124AC40044D0678761145F878
:100CC000264070BD0CED00E000E400E080E100E0B3
:100CD00002490143024A1160704700000000FA0512
:100CE0000CED00E07047000029B1064AD2690243CA
:100CF000044BDA6104E0034AD2698243014BDA61B2
:100D0000704700000010024029B1064A12690243F0
:100D1000044B1A6104E0034A12698243014B1A61D1
:100D2000704700000010024029B1064A9269024350
:100D3000044B9A6104E0034A92698243014B9A6131
:100D4000704700000010024029B1064AD2680243F1
:100D5000044BDA6004E0034AD2688243014BDA6054
:100D6000704700000010024030B50021002200242E
:100D700000232D4D6D6805F00C0121B1042905D02B
:100D8000082923D105E0294D056022E0274D0560A3
:100D90001FE0254D6D6805F47012234D6D6805F454
:100DA0008034022505EB92421CB9214D5543056064
:100DB0000BE01D4D6D6805F400351DB11C4D55430C
:100DC000056002E0194D5543056002E0174D0560CE
:100DD00000BF00BF144D6D6805F0F0010909154D05
:100DE0006B5C0568DD4045600F4D6D6805F4E061A2
:100DF000090A104D6B5C4568DD4085600A4D6D68E1
:100E000005F46051C90A0B4D6B5C4568DD40C56057
:100E1000054D6D6805F44041890B074D6B5CC56855
:100E2000B5FBF3F5056130BD0010024000127A00F9
:100E300000093D003C0000204C00002001460888CD
:100E40007047704710B500F001F810BD0CB50020D8
:100E5000019000903348006840F4803031490860C8
:100E600000BF3048006800F4003000900198401C3A
:100E70000190009818B90198B0F5A06FF1D12948F8
:100E8000006800F4003010B10120009001E0002063
:100E900000900098012843D12348006840F01000DA
:100EA000214908600846006820F0030008600846F1
:100EB000006840F0020008601A484068194948601C
:100EC0000846406848600846406840F480604860D2
:100ED0000846406820F47C1048600846406840F4AA
:100EE000E81048600846006840F08070086000BF65
:100EF0000C48006800F000700028F9D009484068EC
:100F000020F00300074948600846406840F00200AE
:100F1000486000BF0348406800F00C000828F9D181
:100F20000CBD00000010024000200240704700008D
:100F300010B51348006840F00100114908600846E8
:100F40004068104908400E494860084600680E494C
:100F500008400B4908600846006820F480200860BB
:100F60000846406820F4FE0048604FF41F00886087
:100F7000FFF768FF4FF000600449086010BD0000F3
:100F8000001002400000FFF8FFFFF6FE08ED00E051
:100F900010B51648008800F0010028B313480088F7
:100FA00020F001001149088001F006FE1048007889
:100FB000401C00F007000E4908700E480088401CD5
:100FC00080B20C4908800C49B1F80110884206DB58
:100FD0000949087801F03AFB0020064908800448D6
:100FE000007808B901F014FD10BD000010040040A5
:100FF000280000202A0000207000002021B1028873
:1010000042F00102028004E002884FF6FE731A40AB
:101010000280704710B504466848844208D1012117
:10102000C014FFF791FE0021E014FFF78DFEC4E02D
:10103000B4F1804F08D101210846FFF765FE002179
:101040000120FFF761FEB8E05D48844208D101212C
:101050000220FFF759FE00210220FFF755FEACE009
:101060005848844208D101210420FFF74DFE002199
:101070000420FFF749FEA0E05348844208D1012133
:101080000820FFF741FE00210820FFF73DFE94E015
:101090004E48844208D101211020FFF735FE00217F
:1010A0001020FFF731FE88E04948844208D1012131
:1010B0002020FFF729FE00212020FFF725FE7CE0FD
:1010C0004448844208D101214014FFF73DFE00212D
:1010D0006014FFF739FE70E03F48844209D10121D6
:1010E000C804FFF731FE00214FF40020FFF72CFE6B
:1010F00063E03A48844209D101210805FFF724FE44
:1011000000214FF48010FFF71FFE56E03448844260
:1011100009D101214805FFF717FE00214FF4001007
:10112000FFF712FE49E02F48844208D101214020F8
:10113000FFF7EAFD00214020FFF7E6FD3DE02A48E9
:10114000844208D101218020FFF7DEFD00218020AC
:10115000FFF7DAFD31E02548844208D101218015EE
:10116000FFF7D2FD0021A015FFF7CEFD25E02048B6
:10117000844209D101210804FFF7E6FD00214FF464
:101180008030FFF7E1FD18E01A48844209D10121BF
:101190004804FFF7D9FD00214FF40030FFF7D4FDDC
:1011A0000BE01548844208D101218804FFF7CCFDEB
:1011B00000214FF48020FFF7C7FD10BD002C014037
:1011C0000004004000080040000C004000100040F7
:1011D0000014004000340140004C01400050014028
:1011E0000054014000180040001C00400020004056
:1011F0000040014000440140004801401AB1838989
:101200000B43838102E083898B4383817047000015
:10121000002202881D4B98420ED01D4B98420BD0E5
:10122000B0F1804F08D01B4B984205D01A4B984222
:1012300002D01A4B984204D14FF68F731A404B8854
:101240001A43174B984207D0164B984204D04FF6DA
:10125000FF431A40CB881A4302808B8883850B8812
:1012600003850A4B98420BD0094B984208D00E4B8D
:10127000984205D00D4B984202D00D4B984201D1B7
:101280000B7A03860123838270470000002C014003
:10129000003401400004004000080040000C004001
:1012A0000010004000140040004001400044014094
:1012B0000048014010B540F22551754800F059F939
:1012C00000287DD0724800F00FFAC4B2714800784F
:1012D000092817D2DFE800F0CD05172B4663798582
:1012E000B3005A2C0ED102206A4908706A4801885E
:1012F0000088401C684A10806848445400206749B0
:1013000081F81704B5E0654890F8170440F0010033
:10131000624981F81704604801880088401C5E4AD1
:1013200010805E48445403205A490870A1E05A488E
:1013300001880088401C584A10805848445440781E
:101340005649897840EA01205549088008460088B6
:10135000B0F5826F02DD4FF48160088004204D49B2
:10136000087086E04E480088401E4D4908804A4873
:1013700001880088401C484A108048484454484826
:10138000008820B146480088B0F5836F03D306205B
:101390004049087002E005203E49087069E0404875
:1013A0000088401E3E4908803B4801880088401C58
:1013B000394A1080394844543948008820B900E03F
:1013C00058E006203349087053E03348018800880C
:1013D000401C314A10803148445407202D49087080
:1013E00047E02D4801880088401C2B4A10802B487C
:1013F0004454B0F80100C21C28494FF6FF7000F0B9
:101400002FFF2749088024480088801E2349095C53
:1014100021480088401E214A105C41EA00202049F2
:101420000988884207D1104690F8170440F002005E
:10143000114681F8170408201649087019E016486B
:1014400001880088401C144A1080144844541046F7
:101450000088401E1149085CA52806D1084690F86E
:10146000170440F0040081F81704012009490870AE
:1014700000BF00BF0848008840F21741884203D2ED
:1014800004480078012802D100200349088010BDDB
:101490000044004066000020680000204701002052
:1014A0006400002021B1828942F40052828104E06C
:1014B00082894DF6FF731A408281704710B5044649
:1014C0002048844209D101218803FFF73DFC002117
:1014D0004FF48040FFF738FC32E01B48844209D1CA
:1014E00001214804FFF710FC00214FF40030FFF702
:1014F0000BFC25E01548844209D101218804FFF73F
:1015000003FC00214FF48020FFF7FEFB18E0104899
:10151000844209D10121C804FFF7F6FB00214FF4F2
:101520000020FFF7F1FB0BE00A48844208D10121BB
:101530000805FFF7E9FB00214FF48010FFF7E4FBFB
:1015400010BD000000380140004400400048004049
:10155000004C00400050004002460020B1F5007FE2
:1015600000D100BF13880B400BB1012000E0002028
:10157000704770B50246002400230025002040F685
:101580006A16B14200D100BFC1F3421501F01F033A
:10159000012606FA03F3012D02D19689334006E0B5
:1015A000022D02D1168A334001E0968A33400C1294
:1015B000012606FA04F41688344013B10CB1012058
:1015C00000E0002070BDF0B5034600240026002591
:1015D000002040F66A17B94200D100BF1846C1F397
:1015E000421401F01F06012707FA06F5012C01D16C
:1015F0000C3004E0022C01D1103000E014301AB19C
:1016000007682F43076002E00768AF430760F0BD3B
:101610002DE9F04786B005460E460024A24600BFDD
:10162000A1460027B08900B100BF2F462C8A4CF696
:10163000FF700440F08804432C82AC894EF6F3100E
:101640000440B08831890843718908430443AC8160
:10165000AC8A4FF6FF400440B0890443AC8201A835
:10166000FFF782FB1F48874202D1DDF810A001E09E
:10167000DDF80CA0A88900F4004040B10AEBCA00D4
:1016800000EB0A1031684900B0FBF1F807E00AEB03
:10169000CA0000EB0A1031688900B0FBF1F8642041
:1016A000B8FBF0F004012009642101FB1089A8892E
:1016B00000F4004040B1322000EBC900B0FBF1F073
:1016C00000F00700044308E0322000EB0910642119
:1016D000B0FBF1F000F00F0004432C8106B0BDE830
:1016E000F08700000038014001468888C0F30800F8
:1016F0007047C1F308028280704700BFFEE7000018
:10170000014A024900F012B9613100083800002096
:1017100037B514460846064B6A46214600F018F9CC
:1017200004466946002000F0AAFC20463EBD0000A9
:101730007F20000802E008C8121F08C1002AFAD161
:1017400070477047002001E001C1121F002AFBD141
:10175000704700002DE9FF5F82B00021DDE9043011
:10176000020DDDF840B0034318D044F61050A2F249
:10177000FF3242431514119801281FD0A5EB0B002E
:10178000401C5FEA000A4FF000064E4FDFF8389128
:10179000B046504615D5CAF1000413E01198012453
:1017A0004AA3012801D16FEA0B010298119AC0E9FE
:1017B0000031C0E9024206B0BDE8F09FCBF1000065
:1017C000DFE704460021404A491842EB0450CDE9C6
:1017D000001012E0E00707D032463B46404649463B
:1017E000FEF7E2FD8046894632463B4610461946E2
:1017F000FEF7DAFD06460F466410002CEAD1DDE95B
:101800000401DDE90023BAF1000F06DAFEF7CCFD92
:1018100042464B46FEF7C8FD05E0FEF737FE42465E
:101820004B46FEF733FE04460E460022284BFEF7D9
:10183000B5FE03D84FF0FF30014607E00022254BEC
:1018400020463146FEF709FDFEF78FFE102409E021
:10185000002C0ADB0A220023FEF7CEFC039B303269
:101860001A55641E50EA0102F2D1641C039AC4F1B5
:1018700011031444119A012A03D0012208430DD107
:101880000AE0084304D000204FF0110B119072E7DA
:10189000A3EB0B056D1E0DE05B4504DD4FF0000270
:1018A00005F1010504E003DA4FF00002A5F101059E
:1018B000002AECD002981199C0E90231C0E9004534
:1018C00079E70000000014400000F03F3000000005
:1018D0000000F0430000E03FF0B50C460023124E3C
:1018E0000168426800251AE0170187EA5217174479
:1018F00003F0030C54F82CC09C4487EA0C073944CD
:1019000033440F0187EA51170F44C3F3C12C54F835
:101910002CC09C4487EA0C073A446F1CFDB2202D72
:10192000E2DB01604260F0BDBEBAFECA2DE9F041C3
:1019300016460F460446002503E03946B047641CAE
:101940006D1C20780028F8D12846BDE8F081000001
:101950002DE9FF4F95B09B468946064600250FE2CC
:10196000252877D100242746F84A0121059400E074
:10197000044316F8013F203B01FA03F01042F7D16F
:1019800030782A2811D06FF02F033078A0F1300280
:10199000092A16D8059A44F0020402EB820203EBEE
:1019A00042021044761C0590EFE759F8042B05928B
:1019B000002A03DA504244F40054059044F0020433
:1019C000761C30782E2816D116F8010F44F0040446
:1019D0002A280DD06FF02F023078A0F13003092BA8
:1019E00009D807EB870302EB4303C718761CF3E71C
:1019F00059F8047B761C30786C280FD006DC4C2814
:101A000017D068280DD06A2814D104E0742810D0AB
:101A10007A280FD10DE044F400140AE044F4801455
:101A200001E044F440147278824202D104F580143B
:101A3000761C761C307866280BD013DC582877D0BB
:101A400009DC002875D04528F6D04628F4D0472870
:101A50001AD19DE118E0632835D0642879D0652833
:101A600012D195E1702873D008DC6728F1D069287D
:101A70006FD06E280DD06F2806D1B5E073282CD01A
:101A8000752875D0782874D05A46179990476D1CE0
:101A900075E1C4F30250022809D003280DD0D9F80B
:101AA000001004280DD00D6009F1040967E1D9F890
:101AB0000010EA17C1E90052F6E7D9F800100D80CE
:101AC000F2E70D70F0E719F8041B8DF80010002004
:101AD0008DF80100EA46012003E059F804AB4FF00D
:101AE000FF3061074FF0000102D40DE008F1010161
:101AF0008846B9420FDA8045F8DB1AF80810002949
:101B0000F4D108E008F1010188468142FADB1AF8B5
:101B100008100029F6D105985B46A0EB080721467E
:101B20003846179A00F094FA284400EB080507E0BD
:101B30004DE029E10DE01AF8010B5A46179990473C
:101B4000B8F10108F7D25B4621463846179A13E1EF
:101B500042E00A220092C4F302524FF0000A022A25
:101B600008D059F804CB032A4FEAEC710AD00DE0F3
:101B700029E02AE009F1070121F00702F2E802C199
:101B8000914609E00FFA8CFC4FEAEC71042A03D16C
:101B90004FFA8CFC4FEAEC71002907DA0A46002163
:101BA000DCF1000C61EB02012D2202E0220504D5DC
:101BB0002B228DF80420012203E0E20701D020222D
:101BC000F7E7904659E00A2102E010220DE01021CB
:101BD0004FF0000A00910BE010224FF0000A44F091
:101BE00004040827009203E008224FF0000A009244
:101BF000C4F30252022A05D059F804CB0021032A6B
:101C000008D009E009F1070121F00702F2E802C15A
:101C1000914605E01FFA8CFC042A01D10CF0FF0C60
:101C20004FF00008220728D5702806D0009B83F0CB
:101C3000100353EA0A0305D00EE040228DF8042079
:101C4000012208E05CEA010206D030228DF804206F
:101C50008DF8050002229046009B83F0080353EAAA
:101C60000A030AD15CEA010201D1620705D53022DC
:101C70008DF804204FF001087F1E582804D034A0AE
:101C800003900EA802900DE036A0F9E75346604697
:101C9000009AFEF7B1FA84460398825C0298401ECF
:101CA000029002705CEA0100F0D1029806A9081ABD
:101CB00000F1200A600702D524F4803400E00127F7
:101CC000574502DDA7EB0A0000E0002000EB0A0107
:101CD000009005984144401A0590E00306D45B4605
:101CE0002146179A059800F0B3F90544002706E04D
:101CF00001A85A46C05D179990476D1C7F1C474547
:101D0000F6DBE0030CD55B462146179A059800F0F8
:101D10009FF9054404E030205A46179990476D1CFE
:101D20000099481E00900029F5DC08E0029802990D
:101D30005A460078491C0291179990476D1CBAF1D8
:101D40000001AAF1010AF1DC65E1000009280100A7
:101D50003031323334353637383961626364656621
:101D600000000000303132333435363738394142E3
:101D7000434445460000000000F058F90544761C35
:101D8000307800287FF4ECAD19B02846BDE8F08F1C
:101D9000620700D4062709F1070222F0070CFCE8CD
:101DA0000223E14603F000485FEA080C02D00FF27C
:101DB000702C0DE05FEA045C02D50FF2682C07E09E
:101DC0005FEAC47C02D00FF2602C01E0AFF2700C2D
:101DD0004FF0FF3823F00043CDF850C065280CD0F9
:101DE00006DC452809D046281DD047283DD13DE0D6
:101DF000662818D067287ED138E00021112F01DB3A
:101E0000112000E0781CCDE9000106A90EA8FFF71B
:101E1000A1FCDDE90F010E9A03910021009207F168
:101E2000010A04914DE04FF000400097CDE9011008
:101E300006A90EA8FFF78EFCDDE90F0203920E9BA8
:101E400011990022DDF80CA00093049211B9791CBD
:101E500000EB010AB7EB0A0004D4C0F1FF3007F130
:101E6000010A0490AAEB0700019044E0012F00DA78
:101E700001270021112F01DD112000E03846CDE9B6
:101E8000000106A90EA8FFF765FCDDE90F010E9A17
:101E90000391002104910092BA4621070CD40399C2
:101EA000514500DA8A46BAF1010F05DD009AAAF120
:101EB0000101515C302908D0B84202DA10F1040F58
:101EC00006DA0121CDE9011015E0AAF10101E9E7E7
:101ED000002805DC049901440491AAEB000102E00A
:101EE000411C514500DD8A460499401A401C01906E
:101EF0004FF000400290200704D40198504501DBC8
:101F0000CDF8048000208DF84F0002980DF14F07A6
:101F1000B0F1004F25D02B200E9002984FF0020810
:101F200000280CDA404202902D200E9007E00A2192
:101F30000298FEF74BF93031029007F8011DB8F115
:101F40000001A8F10108F2DC02980028EFD1791E07
:101F50000E980870307800F0200040F0450007F837
:101F6000020D12A8C01B00F107081498007800B1F8
:101F7000012000EB0A01019801EBE0710598414452
:101F8000401A401E0590E00306D45B462146179A8E
:101F9000059800F05DF805441498007818B15A4689
:101FA000179990476D1CE00324D55B462146179A8C
:101FB000059800F04DF805441CE00498002807DB64
:101FC000DDE90301884203DD0098405C179901E0D8
:101FD000179930205A469047049805F10105401C96
:101FE00004900198401E019004D12E205A46179962
:101FF00090476D1CBAF10001AAF1010ADDDC05E091
:1020000017F8010B5A46179990476D1CB8F100015B
:10201000A8F10108F4DC5B462146179A0598ABE667
:102020002D0000002B000000200000002DE9F041F1
:10203000044600251E461746880404D405E03946A8
:102040002020B0476D1C641EF9D52846BDE8F081FC
:102050002DE9F041044600251E469046C80301D5EF
:10206000302700E02027880404D505E041463846A3
:10207000B0476D1C641EF9D52846BDE8F0810A689A
:10208000531C0B60107070472DE9F04107460E4657
:102090000024002F51D1384838494A6802608968C5
:1020A000416000784C2805D133484078572801D149
:1020B00044F0010430488078532801D144F00204F0
:1020C0002F4884712C48B0F8035047F277306840AD
:1020D0002C490880084600884BF2F671884201DDE1
:1020E000BDE8F08107222549091D4FF6FF7000F079
:1020F000B7F805464FEA252888F055081E48C079EC
:10210000404501D144F0040404F0030028B11C4808
:10211000C07940F001001A49C87104F0040040B3CE
:102120001748C07940F002001549C8711648124995
:102130000A680260496841601BE042F657656E40DC
:102140000F48408C0F490988884201D144F00404AB
:102150000E480088864201D144F0080404F00C00C7
:1021600028B10748C07940F004000549C871044807
:10217000847100BFB4E70000560000204701002032
:1021800070000020500000205F0500205200002059
:1021900008B501210420FEF7C7FD0220ADF80000BC
:1021A00014208DF8030003208DF8020069460648CC
:1021B000FEF77AFC02210448FEF74AFDFEF71EFBFB
:1021C000FEF7A6FA08BD00000008014070B54FF404
:1021D000A060FEF77DFD01F099F800F0ADFDFFF77E
:1021E000D7FF134800F068FF4FF4E13000F010FE15
:1021F000104800684FF4FA61B0FBF1F0401E86B25F
:102200003146012000F0D4FD0B48006840000A4927
:102210000860002409E00848006805192A78044885
:1022200004F108014254601CC4B20C2CF3DB70BDF5
:1022300079000020000000202400002070B5044632
:102240000D460648C470057102200449A1F801003A
:102250000846B0F8011000F0F5FE70BD47010020FF
:1022600070B50B46002132E013F8011BCC07240E99
:10227000C1F3400544EA8514C1F3800544EA4514DE
:10228000C1F3C00544EA0514C1F3001544EAC504CE
:10229000C1F3401544EA8504C1F3801544EA4504BE
:1022A00044EAD11180EA012000210EE000F400444C
:1022B0002CB148F2050484EA4004A0B203E04FF6D2
:1022C000FF7404EA40004C1CE1B20829EEDB141E46
:1022D000A2F10102C8D1C0F30024E4010512C5F344
:1022E000400544EA85140512C5F3800544EA451407
:1022F0000512C5F3C00544EA05140512C5F300151F
:1023000044EAC5040512C5F3401544EA85040512E4
:10231000C5F3801544EA4504051244EAD516C407FE
:10232000240EC0F3400544EA8514C0F3800544EA56
:102330004514C0F3C00544EA0514C0F3001544EA8F
:10234000C504C0F3401544EA8504C0F3801544EA8F
:102350004504C0F3C0152C4346EA042070BD014675
:1023600042F228324A434FF0E0235A6100229A6138
:1023700001221A6100BF4FF0E022106900F0010253
:102380001AB100F48032002AF5D000224FF0E02389
:102390001A619A617047002106E042F6E06100BFD1
:1023A0000A1EA1F10101FBD1021EA0F10103D8B266
:1023B000F3D17047014601EBC1024FF0E0235A61AF
:1023C00000229A6101221A6100BF4FF0E0221069D9
:1023D00000F001021AB100F48032002AF5D0002288
:1023E0004FF0E0231A619A617047000001480068CD
:1023F000C0B270472081214270B500250026844874
:1024000090F8170400F00600062801D0012070BDE6
:1024100026208049A1F801000846007800200870B5
:102420000846007820F0120040F01000087078484C
:10243000C578212D7DD008DC012D0DD0022D31D0A5
:10244000032D77D0202D76D195E0222D74D0232D29
:1024500073D0242DF7D1B2E000210846FFF714FE17
:1024600000206C4948840846C07900F0010048B15A
:10247000002669486949086000F0E8FF0A20FFF774
:102480008AFF0BE066480088B0F5344F01DD202656
:1024900000E0012660483230604908600020614950
:1024A000088093E05B48C07900F00100E0B10026AD
:1024B000574840785649897840EA0120401E84B246
:1024C0001420FFF768FF21465448006800F032FDF1
:1024D0000646524800682044504908604D48408CE8
:1024E00020444C49488401E001266FE04948408C73
:1024F0004B490988884229DB4B4801880120FFF7B6
:10250000C3FD4448C07900F00400D0B14148C0790F
:1025100040F008003F49C8714248008840B10A2095
:10252000FFF739FF00F046FD064600203D490880D0
:1025300004E035E00BE048E03FE03FE001F0E2F886
:1025400004E000F0A9FF00203249C8713EE03148A4
:10255000C07900F0080008B9012637E02D48408C0A
:102560002F490988884201DA80262FE000260120C1
:10257000284908722AE040F217412548FDF7FBFD83
:102580002348C5700C2229A1001DFDF7FFFD20483E
:10259000001DFDF707FE401C1D49A1F8010015E0D4
:1025A00001F0B0F801F044F801202349086032201E
:1025B000184908710020487108E007E006E01FA0F4
:1025C00001F006F800F062FA00E000BF00BFFA2058
:1025D0001049A1F80100084600780020087008465C
:1025E000007820F0240040F020000870202D04D056
:1025F00031462846FFF722FE04E00548B0F80110F6
:1026000000F020FD0020024981F8170400BFFEE61B
:1026100047010020700000200048000860000020F2
:10262000500000205400002052000020786C626CA2
:102630002D302E322E360000B40121426E6F7720ED
:102640007265626F6F740D0A0000000000F00101F6
:1026500019B100211E4A11600AE000F0080121B101
:102660001C4909781A4A116002E00121184A1160D8
:1026700000F0020119B10021174A11600AE000F0D0
:10268000100121B113490978134A116002E00121B8
:10269000114A116000F0040121B100210C4A121D01
:1026A00011600CE000F0200129B10A490978084ABC
:1026B000121D116003E00121054A121D1160054938
:1026C000097809B9012100E00021024A1170704720
:1026D00094012142180000209C8121424AF6AA2040
:1026E00001490860704700000030004045F2555233
:1026F000054B1A601A46506091604AF6AA221A6089
:102700004CF6CC421A60704700300040052900DDCD
:10271000704700F10B0303EB81031A6000BFF7E77A
:1027200070B505462C46A078052849D2DFE800F0B0
:102730000C1220034700207928B901202249087291
:1027400022A000F045FF3CE0207910B923A000F062
:102750003FFF36E0207950B925A000F039FF294825
:10276000007820B900202749087000F05FF928E0C0
:102770002079002822D124A000F02AFF2BA0FEF708
:10278000BFFF2AA000F024FF00201E490870FA2095
:102790000D49A1F80100084600780020087008469D
:1027A000007820F0090040F008000870012022495C
:1027B0000860FA20044908710020487101E000E037
:1027C00000BF00BF70BD000070000020646F756224
:1027D0006C6520636C69636B0D0A00005057525F93
:1027E0004445545F4B455920646F776E0D0A0000D5
:1027F0005057525F4445545F4B45592075700D0A40
:1028000000000000190000205057525F4445545FFB
:102810004B45592050524553535F434F4E54494EF8
:1028200055455F444F574E0D0A0000000A73687506
:1028300074646F776E0A0000B401214270B50446DB
:10284000D4F8070080470546A07900F03F000A2829
:1028500010D2DFE800F00510B1B1B12041638586E8
:10286000A079C0F38010A84204D0A07920F03F00E6
:10287000401CA071A0E0A079C0F38010A84205D050
:10288000A07920F03F00401DA07103E0A07920F066
:102890003F00A07190E0A079C0F38010A84215D04D
:1028A0006078322802DD00206071607000202070A6
:1028B000A070D4F80B0018B1D4F80B10204688474C
:1028C000A07920F03F00801DA07104E0A07920F0E5
:1028D0003F000930A0716FE0A079C0F38010A842DA
:1028E00016D02078401CC0B22070642815DD00206E
:1028F00020700220A070D4F8130018B1D4F813107F
:1029000020468847A07920F03F00C01DA07104E058
:10291000A07920F03F000930A0714DE0A079C0F30C
:102920008010A84216D02078401CC0B220706428C5
:1029300015DD002020700420A070D4F81B0018B111
:10294000D4F81B1020468847A07920F03F00C01D16
:10295000A07104E0A07920F03F000930A0712BE0C5
:102960002AE0A079C0F38010A84224D10120A070F1
:10297000D4F80F0018B1D4F80F1020468847A0797A
:1029800020F03F00A0716078322814DAE07890B926
:10299000002060706079401C6071607902280ADB59
:1029A0000320A070D4F8170018B1D4F817102046EF
:1029B00088470020607100BF00BFA078E070607998
:1029C00010B16078401C607070BD10B50724847031
:1029D0000171C0F80720847963F3861484718479C7
:1029E00024F03F04847110BD084A116804E081425C
:1029F00000D17047D1F81F100029F8D1034A12689E
:102A0000C0F81F20014A106000BFF2E76C000020F0
:102A100010B50548046804E02046FFF70FFFD4F81E
:102A20001F40002CF8D110BD6C000020012012497D
:102A3000C87012A0FEF764FE10A000F0C9FDC82007
:102A4000FFF78DFC0020104908604FF47A70FFF703
:102A500086FC4FF47A70FFF782FC4FF47A70FFF730
:102A60007EFC4FF47A70FFF77AFC4FF47A70FFF730
:102A700076FC00BFFEE70000700000200A73687556
:102A800074646F776E0A0000A481214200BF40F693
:102A9000B8310420FFF72AFE0A20FFF760FC0EE0A1
:102AA00000BF0748006800F4E06006490843001DC5
:102AB00003490860BFF34F8F00BF00BFFEE7EFE799
:102AC0000CED00E00000FA0570B504460D4600214B
:102AD00001E0481CC1B2164800EB0110006808B1C3
:102AE0000129F6DB012901D1012070BD104800EB5E
:102AF000011004600E4800EB011045600C4800EB2B
:102B0000011082600A4800EB0110C06863F3000006
:102B1000074E06EB0116F060054800EB0110C06897
:102B200020F0FE00024E06EB0116F0600846DCE7DE
:102B30007009002070B50025002438E01D4800EB26
:102B40000410007BC0F3460000282DDD194800EB7F
:102B50000410006860B1174800EB0410007B00F01F
:102B6000010028B9134901EB0411086880470546A4
:102B7000104800EB0410007B4008401E0D4901EB9B
:102B80000411C96860F347010A4800EB0410C160F2
:102B9000084800EB0410806808B1FF2D04D1002024
:102BA000044901EB04110860601CC4B20025012C2B
:102BB000C4DB70BD7009002010B500243DE0204842
:102BC00000EB04100068B0B31D4800EB041041682E
:102BD0001B4800EB04104068401E194A02EB041227
:102BE000506041BB164800EB0410007B00F0010070
:102BF00020B1134901EB041108688047104800EB2D
:102C00000410007B4008401C0D4901EB0411C96809
:102C100060F347010A4800EB0410C160084800EB6C
:102C20000410806838B1064800EB0410806804493D
:102C300001EB04114860601CC4B2012CBFDB10BD65
:102C40007009002070B504460D460BE014F8011B16
:102C50000748FEF74EFD00BF80210548FEF77CFCCB
:102C60000028F9D0281EA5F10105EFD170BD0000A4
:102C70000044004010B500201549C87001201549D6
:102C800008605320124908710020487100F02EF8A6
:102C900011A000F09DFC13A000F09AFCFA200C4952
:102CA000A1F8010008460078002008700846007866
:102CB00020F0240040F02000087000230A2219466A
:102CC0000948FFF701FF08200149C87110BD000045
:102CD00070000020B4012142786C626C2D302E32DD
:102CE0002E3600000D0A00006936000810B50123D9
:102CF0000E4A00210E48FFF768FE0E4A02210C48DA
:102D0000FFF704FD0B4A00210948FFF7FFFC094AC1
:102D100001210748FFF7FAFC064A03210448FFF7A0
:102D2000F5FC0348FFF760FE10BD0000ED2300082E
:102D3000940000202127000830B51A4800684FF49D
:102D40007A72B0FBF2F1B1F1807F01D301201DE076
:102D500021F07F40401E4FF0E022506150170F22BB
:102D6000002807DA13071D0E0F4B00F00F04241F75
:102D70001D5503E013071C0E0C4B1C5400BF002014
:102D80004FF0E022906107201061002008B100BFE1
:102D9000FEE74FF0E020006920F001004FF0E02155
:102DA000086130BD0000002018ED00E000E400E004
:102DB0007FB505460C4601210220FDF795FFADF8D1
:102DC0000850ADF804400020ADF80A00ADF8060048
:102DD00001A90E48FEF71CFA012211460B48FEF726
:102DE0000DFA1D208DF8000000208DF80100032051
:102DF0008DF8020001208DF803006846FDF730FFD2
:102E000001210248FEF7FAF87FBD000000040040EF
:102E100010B586B00446012144F20400FDF784FF9A
:102E20004FF40070ADF8000003208DF80200182068
:102E30008DF8030069463C48FDF736FE25208DF8E5
:102E4000040003208DF805008DF8060001208DF8A0
:102E5000070001A8FDF704FF02940020ADF80C0064
:102E6000ADF80E00ADF81000ADF814000820ADF874
:102E700012002E48FEF722FB02A92C48FEF7C8FBE1
:102E800001212A48FEF70EFB01210420FDF74CFF2B
:102E900001214804FDF728FF2548FEF70FFB182005
:102EA0008DF803000420ADF8000003208DF8020027
:102EB00069461D48FDF7F8FD04208DF80300082041
:102EC000ADF8000069461848FDF7EEFD02940020B9
:102ED000ADF814000C20ADF812000020ADF8100081
:102EE000ADF80E00ADF80C0002A91148FEF790FBFA
:102EF00001210F48FEF7D6FA012240F225510C4875
:102F0000FEF761FB26208DF8040001208DF80700F4
:102F100002208DF8050001208DF8060001A8FDF7BC
:102F20009FFE06B010BD00000008014000380140BF
:102F30000044004070B506460D462A461849194817
:102F40000088FFF78DF917490880174886420BD192
:102F5000B5F5806F08DC15480580028810491448D3
:102F6000FDF7F0F8002405E02A460D49304600F050
:102F7000F1FA0446062C04D2DFE804F00306080A3E
:102F8000040C00BF002407E0042405E0102403E043
:102F9000042401E0022400BF00BF204670BD0000F1
:102FA0004B0100205200002000480008540000207F
:102FB0006F05002010B56420FFF7EDF900F06CFA02
:102FC0006420FFF7E8F90E4802880E490E4800F029
:102FD000C1FA0446062C04D2DFE804F00306080B0D
:102FE000040D00BF002408E0042406E0102400249F
:102FF00003E0042401E0022400BF00BF204610BD0E
:10300000540000206F0500200048000830B502463B
:103010000B46002010E012F8014B6040002109E04F
:1030200000F001041CB18C2484EA600000E0401030
:103030004C1CE1B20829F3DB1C1EA3F10105EBB225
:10304000E9D130BD70B504460D465A2020700E48B7
:10305000B0F80100C21C21464FF6FF70FFF700F9DF
:1030600006460948B0F80100C01C26543112064833
:10307000B0F80100001D2154A521681D2154A91D8F
:103080002046FFF7DFFD70BD4701002010B507485F
:10309000FDF7C0FF0648FEF711FA0648FEF70EFAE4
:1030A00000F066FA00F028FB10BD000000040040AC
:1030B00000380140004400407CB5054600200090E7
:1030C00001900A26002240F225512448FEF77BFA9F
:1030D000FDF794FBFDF71CFBCC20FDF7AFFB69204F
:1030E000FDF7ACFB6020FDF7A9FBFDF773FB044681
:1030F00004F0100008B1392400E0332420E032202D
:10310000FFF749F9FDF77AFBFDF702FB2046FDF7D3
:1031100095FB002405E0FDF75DFB0DF80400601C45
:10312000C4B2082CF7DB07216846FFF76FFF9DF854
:103130000710884204D1009828600198686004E074
:10314000301EA6F10101CEB2D9D100BF012240F25A
:1031500025510248FEF737FA7CBD000000440040CC
:1031600000BF054A128802F04002002AF9D0C2B21C
:10317000014B1B1D1A80704700440040FEB50646F7
:103180002A48407F1F2800D1FEBD46B1274809309C
:1031900027A10A6882604A68C26089680161234F7A
:1031A00009373D46002240F225512548FEF70BFA2B
:1031B0004FF05A302349086023484860002401E05A
:1031C000601CC4B2142CFBDB29461E48FEF784FBAE
:1031D00029461C48FEF780FB1A4903C9CDE90001C6
:1031E00008216846FFF712FF8DF80800002401E06F
:1031F000601CC4B2092CFBDB00210C48417713484A
:1032000000F026F8092269461048FCF7D2FF28B9D9
:103210000648407F40F0100104484177012240F207
:1032200025510748FEF7CFF900BFADE77000002039
:10323000573F90B4A2602A6B48464C5700000000EC
:103240000044004030000020BEBAFECAB700002093
:103250002DE9F041054603274EE01420FFF79BF8C7
:10326000FDF7CCFAFDF754FACC20FDF7E7FA692018
:10327000FDF7E4FA2020FDF7E1FA002600242EE015
:10328000FDF7A8FA2855082C01DD285D46400E2ED2
:1032900006D0152E0BD0462E10D04A2E1CD114E08D
:1032A0001948407F40F001011748417714E0164863
:1032B000407F40F00201144841770DE01248407F02
:1032C00040F004011048417706E00F48407F40F08D
:1032D00008010D48417700BF00BF601CC4B2102C2C
:1032E000CEDB002401E0601CC4B2102CFBDB0648DE
:1032F000407F0F2800D104E0381EA7F10101CFB2B2
:10330000ABD100BFBDE8F0817000002008B50121FD
:103310003C20FDF709FD01210846FDF705FD4BF6B0
:103320006410ADF8000010208DF8030003208DF824
:10333000020069463A48FDF7B7FB01213948FDF71D
:103340003FFC01213848FDF73BFC4BF2A120ADF8D2
:10335000000069463548FDF7A7FB4FF40040ADF883
:10336000000069463248FDF79FFB0020ADF80000E1
:1033700069463048FDF798FB00212E48FDF768FCB0
:1033800040F29340ADF8000004208DF8030048207F
:103390008DF8030069462248FDF786FB4FF49A40FA
:1033A000ADF8000004208DF8030048208DF80300DC
:1033B00069461E48FDF778FB0020ADF80000482064
:1033C0008DF8030069461A48FDF76EFB4020ADF802
:1033D000000004208DF8030069461448FDF764FBE3
:1033E0000120154908601549C1F8940112490839AE
:1033F0000860134908600020114924310860114910
:1034000008600D491039086001200C49C1F8A0017D
:103410000D480068C0EB001080000B49086008BD33
:10342000000801400002300000043000000C0140A0
:103430000010014000140140A481214200002142FB
:1034400098012142BC0122422400002070B50024D2
:10345000FDF7BEFA0220FDF7AFFA01240EE0352099
:10346000FDF728FA084901EB8420FDF729FA054603
:10347000294606A000F0ACF8601CC4B22E2CEEDB8E
:10348000FDF75EFA70BD00000048000865737461C6
:1034900074733A256409000010B5FDF799FA02200B
:1034A000FDF78AFA3520FDF705FA0548FDF708FA19
:1034B0000446214603A000F08BF8FDF741FA10BD49
:1034C000004800086573746174733A25640900004C
:1034D00010B50446206814490840B0F1005F21D1BE
:1034E0001248407F1F280ED01048417F10A000F0E6
:1034F0006FF86068FCF70DFE6068124908600846C6
:10350000006880470EE010A000F062F8FFF7BEFDF3
:1035100072B660680B4908602068FCF7FAFD09483C
:103520000068804710BD00000000FE2F70000020E2
:1035300061707020737461727478282578290D0A7F
:10354000000000001400002061707020737461722C
:10355000740D0A002DE9F04105460E461446A2B24C
:1035600031462846FDF754FA07463846BDE8F08153
:103570007047000010B50020FFF700FE0120FFF7A4
:10358000FDFD0848006800F07F40B0F1006F04D1F5
:103590000448001FFFF79CFF02E003A000F018F8AA
:1035A00010BD0000044800086A6E670D0A000000A4
:1035B000FEF70CFEFFF75EFB40F6B8310420FFF784
:1035C00095F800BFFFF7B6FAFFF788F8FAE70000B2
:1035D0000FB438B5002400BF04E00020124908559C
:1035E000601CC4B2802CF8D305A800900E48009A45
:1035F0000499FEF78DF80020009000240DE000BF34
:103600000A48008800F040000028F9D00648005D14
:103610000649091D0880601CC4B20348005D0028EB
:10362000EDD138BC5DF814FBC70000200038014024
:1036300070B5002510220B494FF47C40FDF7AAF924
:103640000C210848FFF7E2FC0446002405E0054889
:10365000005D284485B2601CC4B2102CF7D3002052
:1036600070BD00005F05002010B51E48007A30B123
:10367000FFF7DEFFFFF77EFF00201A490872FEF712
:10368000BBFE10B90020184908701748007870B1C7
:1036900016480068401C15490860154909688842A9
:1036A00005D900201149086001200E4908720D4813
:1036B00040790C490979884208DA0A484079401C67
:1036C0000849487101200B49086009E00548C078A5
:1036D000012802D10749086002E00020054908607E
:1036E000002010BD700000201A0000201C000020E7
:1036F00020000020B401214200204FF0E0210861A9
:103700007047000010B51349134882680A60C26808
:103710004A60006988600C210E48FFF777FC0D496C
:1037200008730D210B48FFF771FC0A4948730E21FD
:103730000848FFF76BFC074988730F210548FFF71E
:1037400065FC0449C87310224FF47C40FFF702FF68
:1037500010BD00005F050020790000207C370008C4
:10376000000000207000000034170008EC3700084B
:1037700070000020100D00004417000800A24A0449
:103780000000000000000000010203040607080911
:1037900000000000000101000000000028230000DC
:1037A000334444000000000000000000000000005E
:1037B00000000000000000000000000001020304FF
:1037C00001020304060708090204060800000000BD
:1037D00000000000000000000000000000000000E9
:0C37E000000001000000000000000000DC
:04000005080000ED02
:00000001FF
